{
  "abi": [
    {
      "inputs": [
        {
          "internalType": "string",
          "name": "_version",
          "type": "string"
        }
      ],
      "stateMutability": "nonpayable",
      "type": "constructor"
    },
    {
      "anonymous": false,
      "inputs": [
        {
          "indexed": false,
          "internalType": "bytes32",
          "name": "key",
          "type": "bytes32"
        },
        {
          "indexed": false,
          "internalType": "bytes32",
          "name": "value",
          "type": "bytes32"
        }
      ],
      "name": "ItemSet",
      "type": "event"
    },
    {
      "inputs": [
        {
          "internalType": "bytes32",
          "name": "",
          "type": "bytes32"
        }
      ],
      "name": "items",
      "outputs": [
        {
          "internalType": "bytes32",
          "name": "",
          "type": "bytes32"
        }
      ],
      "stateMutability": "view",
      "type": "function"
    },
    {
      "inputs": [
        {
          "internalType": "bytes32",
          "name": "key",
          "type": "bytes32"
        },
        {
          "internalType": "bytes32",
          "name": "value",
          "type": "bytes32"
        }
      ],
      "name": "setItem",
      "outputs": [],
      "stateMutability": "nonpayable",
      "type": "function"
    },
    {
      "inputs": [],
      "name": "version",
      "outputs": [
        {
          "internalType": "string",
          "name": "",
          "type": "string"
        }
      ],
      "stateMutability": "view",
      "type": "function"
    }
  ],
  "bytecode": {
    "object": "0x608060405234801561001057600080fd5b5060405161049038038061049083398101604081905261002f916100f8565b8051610042906000906020840190610049565b5050610201565b828054610055906101c7565b90600052602060002090601f01602090048101928261007757600085556100bd565b82601f1061009057805160ff19168380011785556100bd565b828001600101855582156100bd579182015b828111156100bd5782518255916020019190600101906100a2565b506100c99291506100cd565b5090565b5b808211156100c957600081556001016100ce565b634e487b7160e01b600052604160045260246000fd5b6000602080838503121561010b57600080fd5b82516001600160401b038082111561012257600080fd5b818501915085601f83011261013657600080fd5b815181811115610148576101486100e2565b604051601f8201601f19908116603f01168101908382118183101715610170576101706100e2565b81604052828152888684870101111561018857600080fd5b600093505b828410156101aa578484018601518185018701529285019261018d565b828411156101bb5760008684830101525b98975050505050505050565b600181811c908216806101db57607f821691505b6020821081036101fb57634e487b7160e01b600052602260045260246000fd5b50919050565b610280806102106000396000f3fe608060405234801561001057600080fd5b50600436106100415760003560e01c806348f343f31461004657806354fd4d5014610079578063f56256c71461008e575b600080fd5b610066610054366004610180565b60016020526000908152604090205481565b6040519081526020015b60405180910390f35b6100816100a3565b6040516100709190610199565b6100a161009c3660046101ee565b610131565b005b600080546100b090610210565b80601f01602080910402602001604051908101604052809291908181526020018280546100dc90610210565b80156101295780601f106100fe57610100808354040283529160200191610129565b820191906000526020600020905b81548152906001019060200180831161010c57829003601f168201915b505050505081565b60008281526001602090815260409182902083905581518481529081018390527fe79e73da417710ae99aa2088575580a60415d359acfad9cdd3382d59c80281d4910160405180910390a15050565b60006020828403121561019257600080fd5b5035919050565b600060208083528351808285015260005b818110156101c6578581018301518582016040015282016101aa565b818111156101d8576000604083870101525b50601f01601f1916929092016040019392505050565b6000806040838503121561020157600080fd5b50508035926020909101359150565b600181811c9082168061022457607f821691505b60208210810361024457634e487b7160e01b600052602260045260246000fd5b5091905056fea264697066735822122073b43885b555b80198193def5f737bb5588e9735e13d70c0ba095a4e0857326d64736f6c634300080d0033",
    "linkReferences": {}
  }
}